S01B00004C61626F7261746F72696F345F536C617665302E73726563CD
S11300000C945A000C946C000C946C000C94BC037B
S11300100C946C000C946C000C946C000C946C00AC
S11300200C946C000C946C000C946C000C946C009C
S11300300C946C000C946C000C946C000C946C008C
S11300400C946C000C946C000C946C000C946C007C
S11300500C946C000C946C000C946C000C946C006C
S11300600C9480030C946C000C946C000C946C0045
S11300700C946C000C946C000C946C000C946C004C
S11300800C946C000C946C000C946C000C946C003C
S11300900C946C000C946C000C946C000C946C002C
S11300A00C946C000C946C000C946C000C946C001C
S11300B00C946C0011241FBECFEFD8E0DEBFCDBF7F
S11300C021E0A0E0B1E001C01D92A530B207E1F744
S11300D00E942C030C9403040C940000863008F056
S11300E045C061111CC094B1482F477021E030E035
S11300F002C0220F331F4A95E2F7292B24B984301A
S113010029F4E9ECF0E090819F7E9083833009F03C
S113011043C1E9ECF0E08081877F808308956130FA
S113012099F444B1877021E030E0B90102C0660F50
S1130130771F8A95E2F7CB01962F9095942394B973
S113014095B1892B85B90895623009F025C144B170
S1130150877021E030E0B90102C0660F771F8A95ED
S1130160E2F7CB018095842384B908959AEF980F20
S1130170963008F052C0611117C047B190E0029662
S113018087709078992324F40197886F9F6F019664
S113019021E030E0B90102C0660F771F8A95E2F7CB
S11301A0CB01842B87B908956130E1F447B190E025
S11301B0029687709078992324F40197886F9F6F33
S11301C0019621E030E0B90102C0660F771F8A95DD
S11301D0E2F7CB01962F9095942397B998B1892B88
S11301E088B90895623009F0D7C047B190E002960B
S11301F087709078992324F40197886F9F6F0196F4
S113020021E030E0B90102C0660F771F8A95E2F75A
S1130210CB018095842387B9089594EF980F983083
S113022008F065C061112AC09AB1282F30E02C5F14
S11302303F4F27703078332334F421503109286F2D
S11302403F6F2F5F3F4F41E050E0BA0102C0660F9D
S1130250771F2A95E2F79B01292B2AB98C3029F4C0
S1130260E1ECF0E090819F7E90838D3009F094C0A2
S1130270E1ECF0E08081877F808308956130E1F4D0
S11302804AB190E0049687709078992324F40197FA
S1130290886F9F6F019621E030E0B90102C0660FBC
S11302A0771F8A95E2F7CB01962F909594239AB9FC
S11302B09BB1892B8BB90895623009F06DC04AB1A6
S11302C090E0049687709078992324F40197886FBE
S11302D09F6F019621E030E0B90102C0660F771FDD
S11302E08A95E2F7CB01809584238AB908959CEE20
S11302F0980F923008F050C0611117C04DB190E0D2
S1130300029787709078992324F40197886F9F6FE0
S1130310019621E030E0B90102C0660F771F8A958B
S1130320E2F7CB01842B8DB908956130E1F44DB12E
S113033090E0029787709078992324F40197886F4E
S11303409F6F019621E030E0B90102C0660F771F6C
S11303508A95E2F7CB01962F909594239DB99EB18F
S1130360892B8EB908956230B9F44DB190E00297AB
S113037087709078992324F40197886F9F6F019672
S113038021E030E0B90102C0660F771F8A95E2F7D9
S1130390CB01809584238DB908958630F8F46623C3
S11303A071F045B1877021E030E0B90102C0660FF9
S11303B0771F8A95E2F7CB01842B85B9089545B15F
S11303C0877021E030E0B90102C0660F771F8A957B
S11303D0E2F7CB018095842385B908959AEF980FAD
S11303E0963088F56623B9F048B190E0029687709C
S11303F09078992324F40197886F9F6F019621E0E8
S113040030E0B90102C0660F771F8A95E2F7CB018D
S1130410842B88B9089548B190E00296877090784B
S1130420992324F40197886F9F6F019621E030E0AF
S1130430B90102C0660F771F8A95E2F7CB01809558
S1130440842388B9089594EF980F983088F566232B
S1130450B9F04BB190E0049687709078992324F416
S11304600197886F9F6F019621E030E0B90102C0C7
S1130470660F771F8A95E2F7CB01842B8BB9089519
S11304804BB190E0049687709078992324F40197F7
S1130490886F9F6F019621E030E0B90102C0660FBA
S11304A0771F8A95E2F7CB01809584238BB9089551
S11304B09CEE980F923080F56623B9F04EB190E02F
S11304C0029787709078992324F40197886F9F6F1F
S11304D0019621E030E0B90102C0660F771F8A95CA
S11304E0E2F7CB01842B8EB908954EB190E00297C8
S11304F087709078992324F40197886F9F6F0196F1
S113050021E030E0B90102C0660F771F8A95E2F757
S1130510CB01809584238EB90895863060F493B11D
S1130520282F2770892F90E002C0959587952A95EA
S1130530E2F7817008959AEF980F9630C0F496B15F
S1130540282F30E02E5F3F4F27703078332334F468
S113055021503109286F3F6F2F5F3F4F892F90E063
S113056002C0959587952A95E2F78170089594EFD6
S1130570980F9830C0F499B1282F30E02C5F3F4F8A
S113058027703078332334F421503109286F3F6FBA
S11305902F5F3F4F892F90E002C0959587952A954C
S11305A0E2F7817008959CEE980F9230C0F49CB1EC
S11305B0282F30E02250310927703078332334F467
S11305C021503109286F3F6F2F5F3F4F892F90E0F3
S11305D002C0959587952A95E2F78170089581E088
S11305E00895880F8093BA0085E48093BC00089531
S11305F0CF93C82F682F661F6627661F81E00E946D
S1130600CD01C6FB662760F980E00E94CD01C5FBE1
S1130610662760F983E10E94CD01C4FB662760F977
S113062082E10E94CD01C3FB662760F981E10E944B
S1130630CD01C2FB662760F980E10E94CD01C1FBB8
S1130640662760F98FE00E94CD016C2F61708EE007
S11306500E94CD01CF910895F89482E40E94F102A2
S113066060E081E00E946E0060E080E00E946E0025
S113067060E083E10E946E0060E082E10E946E000F
S113068060E081E10E946E0060E080E10E946E0003
S113069060E08FE00E946E0060E08EE00E946E00D9
S11306A0E8E6F0E0808181608083EBE6F0E0808121
S11306B08C60808361E082E00E946E0061E083E0F0
S11306C00E946E00789480910301882371F0109247
S11306D0030180910201813A29F480910101809300
S11306E0040103C081E28093040180910001882306
S11306F051F310920001809101010E94F802E3CFAE
S11307001F920F920FB60F9211248F938091B9000C
S1130710887F803869F018F4803631F024C0883A34
S113072091F0883BC1F01FC085EC8093BC001EC0D3
S11307308091BB008093020181E08093030185ECEA
S11307408093BC0013C0809104018093BB0085ECAE
S11307508093BC000BC0809104018093BB0085ECA6
S11307608093BC0003C085EC8093BC008F910F90F4
S11307700FBE0F901F9018951F920F920FB60F92F5
S113078011242F933F934F935F936F937F938F9392
S11307909F93AF93BF93EF93FF9383E00E948D02E7
S11307A081110FC0809101018F5F809301018091BD
S11307B00101803118F08FE08093010181E0809382
S11307C0000182E00E948D0281110CC08091010120
S11307D0882329F08091010181508093010181E0F7
S11307E080930001FF91EF91BF91AF919F918F9101
S11307F07F916F915F914F913F912F910F900FBE19
S10D08000F901F901895F894FFCF95
S9030000FC
