S01100004932435F536C6176652E73726563FB
S11300000C945A000C946C000C946C000C946C00CE
S11300100C946C000C946C000C946C000C946C00AC
S11300200C946C000C946C000C946C000C946C009C
S11300300C946C000C946C000C946C000C946C008C
S11300400C946C000C946C000C946C000C946C007C
S11300500C946C000C946C000C946C000C946C006C
S11300600C9404030C946C000C946C000C946C00C1
S11300700C946C000C946C000C946C000C946C004C
S11300800C946C000C946C000C946C000C946C003C
S11300900C946C000C946C000C946C000C946C002C
S11300A00C946C000C946C000C946C000C946C001C
S11300B00C946C0011241FBECFEFD8E0DEBFCDBF7F
S11300C021E0A0E0B1E001C01D92A430B207E1F745
S11300D00E9494020C9449030C940000863008F0AA
S11300E045C061111CC094B1482F477021E030E035
S11300F002C0220F331F4A95E2F7292B24B984301A
S113010029F4E9ECF0E090819F7E9083833009F03C
S113011043C1E9ECF0E08081877F808308956130FA
S113012099F444B1877021E030E0B90102C0660F50
S1130130771F8A95E2F7CB01962F9095942394B973
S113014095B1892B85B90895623009F025C144B170
S1130150877021E030E0B90102C0660F771F8A95ED
S1130160E2F7CB018095842384B908959AEF980F20
S1130170963008F052C0611117C047B190E0029662
S113018087709078992324F40197886F9F6F019664
S113019021E030E0B90102C0660F771F8A95E2F7CB
S11301A0CB01842B87B908956130E1F447B190E025
S11301B0029687709078992324F40197886F9F6F33
S11301C0019621E030E0B90102C0660F771F8A95DD
S11301D0E2F7CB01962F9095942397B998B1892B88
S11301E088B90895623009F0D7C047B190E002960B
S11301F087709078992324F40197886F9F6F0196F4
S113020021E030E0B90102C0660F771F8A95E2F75A
S1130210CB018095842387B9089594EF980F983083
S113022008F065C061112AC09AB1282F30E02C5F14
S11302303F4F27703078332334F421503109286F2D
S11302403F6F2F5F3F4F41E050E0BA0102C0660F9D
S1130250771F2A95E2F79B01292B2AB98C3029F4C0
S1130260E1ECF0E090819F7E90838D3009F094C0A2
S1130270E1ECF0E08081877F808308956130E1F4D0
S11302804AB190E0049687709078992324F40197FA
S1130290886F9F6F019621E030E0B90102C0660FBC
S11302A0771F8A95E2F7CB01962F909594239AB9FC
S11302B09BB1892B8BB90895623009F06DC04AB1A6
S11302C090E0049687709078992324F40197886FBE
S11302D09F6F019621E030E0B90102C0660F771FDD
S11302E08A95E2F7CB01809584238AB908959CEE20
S11302F0980F923008F050C0611117C04DB190E0D2
S1130300029787709078992324F40197886F9F6FE0
S1130310019621E030E0B90102C0660F771F8A958B
S1130320E2F7CB01842B8DB908956130E1F44DB12E
S113033090E0029787709078992324F40197886F4E
S11303409F6F019621E030E0B90102C0660F771F6C
S11303508A95E2F7CB01962F909594239DB99EB18F
S1130360892B8EB908956230B9F44DB190E00297AB
S113037087709078992324F40197886F9F6F019672
S113038021E030E0B90102C0660F771F8A95E2F7D9
S1130390CB01809584238DB908958630F8F46623C3
S11303A071F045B1877021E030E0B90102C0660FF9
S11303B0771F8A95E2F7CB01842B85B9089545B15F
S11303C0877021E030E0B90102C0660F771F8A957B
S11303D0E2F7CB018095842385B908959AEF980FAD
S11303E0963088F56623B9F048B190E0029687709C
S11303F09078992324F40197886F9F6F019621E0E8
S113040030E0B90102C0660F771F8A95E2F7CB018D
S1130410842B88B9089548B190E00296877090784B
S1130420992324F40197886F9F6F019621E030E0AF
S1130430B90102C0660F771F8A95E2F7CB01809558
S1130440842388B9089594EF980F983088F566232B
S1130450B9F04BB190E0049687709078992324F416
S11304600197886F9F6F019621E030E0B90102C0C7
S1130470660F771F8A95E2F7CB01842B8BB9089519
S11304804BB190E0049687709078992324F40197F7
S1130490886F9F6F019621E030E0B90102C0660FBA
S11304A0771F8A95E2F7CB01809584238BB9089551
S11304B09CEE980F923080F56623B9F04EB190E02F
S11304C0029787709078992324F40197886F9F6F1F
S11304D0019621E030E0B90102C0660F771F8A95CA
S11304E0E2F7CB01842B8EB908954EB190E00297C8
S11304F087709078992324F40197886F9F6F0196F1
S113050021E030E0B90102C0660F771F8A95E2F757
S1130510CB01809584238EB90895880F8093BA0007
S113052085E48093BC000895F89486E30E948D02CC
S1130530789460E081E00E946E0060E080E00E94B8
S11305406E0060E083E10E946E0060E082E10E9440
S11305506E0060E081E10E946E0060E080E10E9434
S11305606E0060E08FE00E946E0060E08EE00E940A
S11305706E00809102018823E1F3109202018091C0
S11305800101813A31F48091000180958093030147
S113059003C08FEF80930301C0E0D1E06981661F3F
S11305A06627661F8EE00E94CD01698166FB66277F
S11305B060F98FE00E94CD01698165FB662760F9CF
S11305C080E10E94CD0169816295617081E10E94A0
S11305D0CD01698163FB662760F982E10E94CD0148
S11305E0698162FB662760F983E10E94CD0169811C
S11305F06695617080E00E94CD016981617081E03F
S11306000E94CD011882B5CF1F920F920FB60F92A0
S113061011248F938091B900887F803869F018F491
S1130620803631F02DC0883AD9F0883B09F128C0D2
S113063085EC8093BC0027C080910001811105C026
S11306408091BB008093000107C08091BB00809320
S1130650010181E08093020185EC8093BC0013C00A
S1130660809103018093BB0085EC8093BC000BC098
S1130670809103018093BB0085EC8093BC0003C090
S113068085EC8093BC008F910F900FBE0F901F904C
S10906901895F894FFCF59
S9030000FC
