:100000000C945A000C9477000C9477000C947700B1
:100010000C9477000C9477000C9477000C94770084
:100020000C9477000C9477000C9477000C94770074
:100030000C9477000C9477000C9477000C94770064
:100040000C9477000C9477000C9477000C94770054
:100050000C9477000C9477000C9477000C94770044
:100060000C9463030C9477000C9477000C94770045
:100070000C9477000C9477000C9477000C94770024
:100080000C9477000C9477000C9477000C94770014
:100090000C9477000C9477000C9477000C94770004
:1000A0000C9477000C9477000C9477000C947700F4
:1000B0000C94770011241FBECFEFD8E0DEBFCDBF78
:1000C00011E0A0E0B1E0E2E4F7E002C005900D929B
:1000D000A030B107D9F721E0A0E0B1E001C01D9246
:1000E000A530B207E1F70E9417030C949F030C940C
:1000F0000000ECE7F0E090819F73892B8083808182
:100100008F7D682B6083EAE7F0E08081887F482B51
:100110004083ABE7B0E08C91887F282B2C938081C3
:100120008F7780830895EEE7F0E0908121E030E062
:10013000082E02C0220F331F0A94E2F7922B9083FD
:10014000ECE7F0E09081907F892B8083EAE7F0E094
:100150008081806C808380917A0086FDFCCFEAE705
:10016000F0E080818F778083EEE7F0E0808120955A
:1001700028232083809179000895863008F045C0B7
:1001800061111CC094B1482F477021E030E002C0DB
:10019000220F331F4A95E2F7292B24B9843029F422
:1001A000E9ECF0E090819F7E9083833009F043C1B9
:1001B000E9ECF0E08081877F80830895613099F4D5
:1001C00044B1877021E030E0B90102C0660F771FAB
:1001D0008A95E2F7CB01962F9095942394B995B127
:1001E000892B85B90895623009F025C144B1877023
:1001F00021E030E0B90102C0660F771F8A95E2F76F
:10020000CB018095842384B908959AEF980F963096
:1002100008F052C0611117C047B190E00296877094
:100220009078992324F40197886F9F6F019621E0BD
:1002300030E0B90102C0660F771F8A95E2F7CB0163
:10024000842B87B908956130E1F447B190E00296BC
:1002500087709078992324F40197886F9F6F019697
:1002600021E030E0B90102C0660F771F8A95E2F7FE
:10027000CB01962F9095942397B998B1892B88B983
:100280000895623009F0D7C047B190E002968770B8
:100290009078992324F40197886F9F6F019621E04D
:1002A00030E0B90102C0660F771F8A95E2F7CB01F3
:1002B0008095842387B9089594EF980F983008F0BB
:1002C00065C061112AC09AB1282F30E02C5F3F4FE2
:1002D00027703078332334F421503109286F3F6F71
:1002E0002F5F3F4F41E050E0BA0102C0660F771F19
:1002F0002A95E2F79B01292B2AB98C3029F4E1ECED
:10030000F0E090819F7E90838D3009F094C0E1EC05
:10031000F0E08081877F808308956130E1F44AB105
:1003200090E0049687709078992324F40197886F61
:100330009F6F019621E030E0B90102C0660F771F80
:100340008A95E2F7CB01962F909594239AB99BB1A9
:10035000892B8BB90895623009F06DC04AB190E0E5
:10036000049687709078992324F40197886F9F6F83
:10037000019621E030E0B90102C0660F771F8A952F
:10038000E2F7CB01809584238AB908959CEE980FFB
:10039000923008F050C0611117C04DB190E0029743
:1003A00087709078992324F40197886F9F6F019646
:1003B00021E030E0B90102C0660F771F8A95E2F7AD
:1003C000CB01842B8DB908956130E1F44DB190E0FB
:1003D000029787709078992324F40197886F9F6F14
:1003E000019621E030E0B90102C0660F771F8A95BF
:1003F000E2F7CB01962F909594239DB99EB1892B5E
:100400008EB908956230B9F44DB190E002978770CB
:100410009078992324F40197886F9F6F019621E0CB
:1004200030E0B90102C0660F771F8A95E2F7CB0171
:10043000809584238DB908958630F8F4662371F091
:1004400045B1877021E030E0B90102C0660F771F27
:100450008A95E2F7CB01842B85B9089545B1877061
:1004600021E030E0B90102C0660F771F8A95E2F7FC
:10047000CB018095842385B908959AEF980F963023
:1004800088F56623B9F048B190E0029687709078BD
:10049000992324F40197886F9F6F019621E030E043
:1004A000B90102C0660F771F8A95E2F7CB01842B52
:1004B00088B9089548B190E00296877090789923A2
:1004C00024F40197886F9F6F019621E030E0B90115
:1004D00002C0660F771F8A95E2F7CB0180958423CF
:1004E00088B9089594EF980F983088F56623B9F08D
:1004F0004BB190E0049687709078992324F401978B
:10050000886F9F6F019621E030E0B90102C0660F4D
:10051000771F8A95E2F7CB01842B8BB908954BB1F5
:1005200090E0049687709078992324F40197886F5F
:100530009F6F019621E030E0B90102C0660F771F7E
:100540008A95E2F7CB01809584238BB908959CEEC0
:10055000980F923080F56623B9F04EB190E0029783
:1005600087709078992324F40197886F9F6F019684
:1005700021E030E0B90102C0660F771F8A95E2F7EB
:10058000CB01842B8EB908954EB190E0029787700D
:100590009078992324F40197886F9F6F019621E04A
:1005A00030E0B90102C0660F771F8A95E2F7CB01F0
:1005B000809584238EB90895880F8093BA0085E4CE
:1005C0008093BC000895CF93C82F682F661F6627BD
:1005D000661F8EE00E941C02C6FB662760F98FE052
:1005E0000E941C02C5FB662760F980E10E941C0284
:1005F000C4FB662760F981E10E941C02C3FB6627E9
:1006000060F982E10E941C02C2FB662760F983E167
:100610000E941C02C1FB662760F980E00E941C0258
:100620006C2F617081E00E941C02CF910895F894B4
:1006300086E30E94DC0220E047E060E280E40E9462
:100640007900789460E081E00E94BD0060E080E085
:100650000E94BD0060E083E10E94BD0060E082E195
:100660000E94BD0060E081E10E94BD0060E080E189
:100670000E94BD0060E08FE00E94BD0060E08EE05F
:100680000E94BD0087E00E94930080930101909139
:10069000000198279E7F21F0809300010E94E302D1
:1006A00080910301882371F310920301809102016C
:1006B000813A29F48091000180930401E3CF8FEF08
:1006C00080930401DFCF1F920F920FB60F92112477
:1006D0008F938091B900887F803869F018F4803654
:1006E00031F024C0883A91F0883BC1F01FC085ECFE
:1006F0008093BC001EC08091BB008093020181E00A
:100700008093030185EC8093BC0013C080910401A9
:100710008093BB0085EC8093BC000BC080910401EA
:100720008093BB0085EC8093BC0003C085EC809374
:10073000BC008F910F900FBE0F901F901895F894EA
:02074000FFCFE9
:00000001FF
