:100000000C949B000C94B8000C94B8000C94B800AD
:100010000C94B8000C94B8000C94B8000C94B80080
:100020000C94B8000C94B8000C94B8000C94B80070
:100030000C94B8000C94B8000C94B8000C94B80060
:100040000C94B8000C94B8000C94B8000C94B80050
:100050000C94B8000C94B8000C94B8000C94B80040
:100060000C94B8000C94B8000C94B8000C94B80030
:100070000C94B8000C94B8000C94B8000C94B80020
:100080000C94B8000C94B8000C94B8000C94B80010
:100090000C94B8000C94B8000C94B8000C94B80000
:1000A0000C94B8000C94B8000C94B8000C94B800F0
:1000B0000C94B80007634236B79BD8A71A39685624
:1000C00018AEBAAB558C1D3CB7CC5763BD6DEDFD7A
:1000D000753EF6177231BF000000803F0800000037
:1000E000BE922449123EABAAAA2ABECDCCCC4C3E2D
:1000F00000000080BEABAAAAAA3E00000000BF001C
:100100000000803F0000000000084178D3BB438717
:10011000D1133D190E3CC3BD4282AD2B3E68EC822B
:1001200076BED98FE1A93E4C80EFFFBE01C4FF7FB0
:100130003F000000000011241FBECFEFD8E0DEBF5B
:10014000CDBF11E0A0E0B1E0E2EFFBE102C005901D
:100150000D92A834B107D9F721E0A8E4B1E001C0BD
:100160001D92AB35B207E1F70E9485050C94F70D9F
:100170000C940000863008F045C061111CC094B199
:10018000482F477021E030E002C0220F331F4A950C
:10019000E2F7292B24B9843029F4E9ECF0E09081CE
:1001A0009F7E9083833009F043C1E9ECF0E08081C9
:1001B000877F80830895613099F444B1877021E08E
:1001C00030E0B90102C0660F771F8A95E2F7CB01D4
:1001D000962F9095942394B995B1892B85B908955C
:1001E000623009F025C144B1877021E030E0B901E7
:1001F00002C0660F771F8A95E2F7CB0180958423B2
:1002000084B908959AEF980F963008F052C06111A2
:1002100017C047B190E0029687709078992324F434
:100220000197886F9F6F019621E030E0B90102C00D
:10023000660F771F8A95E2F7CB01842B87B9089563
:100240006130E1F447B190E002968770907899238D
:1002500024F40197886F9F6F019621E030E0B90187
:1002600002C0660F771F8A95E2F7CB01962F909513
:10027000942397B998B1892B88B90895623009F011
:10028000D7C047B190E0029687709078992324F404
:100290000197886F9F6F019621E030E0B90102C09D
:1002A000660F771F8A95E2F7CB018095842387B983
:1002B000089594EF980F983008F065C061112AC036
:1002C0009AB1282F30E02C5F3F4F277030783323CE
:1002D00034F421503109286F3F6F2F5F3F4F41E0C9
:1002E00050E0BA0102C0660F771F2A95E2F79B0122
:1002F000292B2AB98C3029F4E1ECF0E090819F7E23
:1003000090838D3009F094C0E1ECF0E08081877F2C
:10031000808308956130E1F44AB190E004968770DB
:100320009078992324F40197886F9F6F019621E0BC
:1003300030E0B90102C0660F771F8A95E2F7CB0162
:10034000962F909594239AB99BB1892B8BB90895D8
:10035000623009F06DC04AB190E0049687709078E1
:10036000992324F40197886F9F6F019621E030E074
:10037000B90102C0660F771F8A95E2F7CB0180951D
:1003800084238AB908959CEE980F923008F050C0EB
:10039000611117C04DB190E0029787709078992352
:1003A00024F40197886F9F6F019621E030E0B90136
:1003B00002C0660F771F8A95E2F7CB01842B8DB9B7
:1003C00008956130E1F44DB190E002978770907824
:1003D000992324F40197886F9F6F019621E030E004
:1003E000B90102C0660F771F8A95E2F7CB01962FFD
:1003F000909594239DB99EB1892B8EB90895623052
:10040000B9F44DB190E0029787709078992324F465
:100410000197886F9F6F019621E030E0B90102C01B
:10042000660F771F8A95E2F7CB01809584238DB9FB
:1004300008958630F8F4662371F045B1877021E0A5
:1004400030E0B90102C0660F771F8A95E2F7CB0151
:10045000842B85B9089545B1877021E030E0B9015A
:1004600002C0660F771F8A95E2F7CB01809584233F
:1004700085B908959AEF980F963088F56623B9F0FC
:1004800048B190E0029687709078992324F4019700
:10049000886F9F6F019621E030E0B90102C0660FBE
:1004A000771F8A95E2F7CB01842B88B9089548B16C
:1004B00090E0029687709078992324F40197886FD2
:1004C0009F6F019621E030E0B90102C0660F771FEF
:1004D0008A95E2F7CB018095842388B9089594EF3B
:1004E000980F983088F56623B9F04BB190E00496E8
:1004F00087709078992324F40197886F9F6F0196F5
:1005000021E030E0B90102C0660F771F8A95E2F75B
:10051000CB01842B8BB908954BB190E00496877082
:100520009078992324F40197886F9F6F019621E0BA
:1005300030E0B90102C0660F771F8A95E2F7CB0160
:10054000809584238BB908959CEE980F923080F5A6
:100550006623B9F04EB190E00297877090789923A6
:1005600024F40197886F9F6F019621E030E0B90174
:1005700002C0660F771F8A95E2F7CB01842B8EB9F4
:1005800008954EB190E0029787709078992324F4F3
:100590000197886F9F6F019621E030E0B90102C09A
:1005A000660F771F8A95E2F7CB01809584238EB979
:1005B0000895CF93C82F682F617080914F010E94DA
:1005C00019026C2F627080914D010E9419026C2FEC
:1005D0006470809151010E9419026C2F68708091A3
:1005E00053010E9419026C2F6071809155010E9485
:1005F00019026C2F6072809152010E9419026C2FB7
:10060000607480914E010E9419026C2F6078809175
:1006100050010E94190260E0809154010E94190269
:1006200061E080914C010E9419028FE79EE30197DF
:10063000F1F700C0000060E080914C010E941902B7
:10064000CF91089581E00E94D9028FE39FE1019745
:10065000F1F700C0000008958CE00E94D9028FE3FA
:100660009FE10197F1F700C0000008958F92AF92CB
:10067000CF92EF920F93CF93DF93CDB7DEB78093F6
:10068000540160934C0140934F0120934D0100931E
:100690005101E0925301C0925501A0925201809203
:1006A0004E019A859093500160E00E94BA0060E08C
:1006B00080914C010E94BA0060E080914F010E943D
:1006C000BA0060E080914D010E94BA0060E0809124
:1006D00051010E94BA0060E0809153010E94BA006B
:1006E00060E0809155010E94BA0060E08091520163
:1006F0000E94BA0060E080914E010E94BA0060E062
:10070000809150010E94BA008FE59AEE0197F1F7AF
:1007100000C0000088E30E94D9028FE19EE40197A7
:10072000F1F700C000000E942C038FEF9CE70197B7
:10073000F1F700C0000086E00E94D9028FE39CE937
:100740000197F1F700C000000E9422038FEF9CE7A1
:100750000197F1F700C00000DF91CF910F91EF906A
:10076000CF90AF908F900895CF93C82F682F61706E
:1007700080914F010E9419026C2F627080914D018F
:100780000E9419026C2F6470809151010E9419021D
:100790006C2F6870809153010E9419026C2F607158
:1007A000809155010E9419026C2F60728091520154
:1007B0000E9419026C2F607480914E010E941902F0
:1007C0006C2F6078809150010E94190261E0809145
:1007D00054010E94190261E080914C010E941902AB
:1007E0008FE79EE30197F1F700C0000060E0809181
:1007F0004C010E9419028FE39FE10197F1F700C0BD
:100800000000CF910895CF93DF93EC0103C00E94C5
:10081000B403219688818111FACFDF91CF91089599
:100820008F929F92AF92BF92CF92DF92EF92FF9200
:100830000F931F93CF93DF934B015C01C42F0E9452
:1008400006076B017C01072E000C880B990B0E9498
:100850003E079B01AC01C501B4010E9427064B0174
:100860005C016C2F70E080E090E00E943C079B01EF
:10087000AC0160E070E080E291E40E9437089B01E7
:10088000AC01C501B4010E94CA070E940607162FD9
:10089000072FDF92CF92C6E0D1E0DF93CF931F9274
:1008A0001F921F921F920E94DD0A01960E94BC09AE
:1008B000A82EB92EDF92CF92DF93CF93BF92AF9243
:1008C0000E940D0B8A2D9B2D0E9403040F931F93F2
:1008D000DF93CF931F921F921F921F920E94DD0AF7
:1008E00001960E94BC09E82EF92E0F931F93DF9307
:1008F000CF93FF92EF920E940D0B89E091E00E944E
:1009000003048E2D9F2D0E9403048DB79EB74C9635
:100910000FB6F8949EBF0FBE8DBFDF91CF911F9190
:100920000F91FF90EF90DF90CF90BF90AF909F908E
:100930008F90089518160CF081E083300CF082E05F
:1009400016160CF061E061310CF060E1813019F4B1
:100950008FEF860F02C08FE3860F80680E94D90256
:100960000895E9EBF0E080818E7F808380818D7F28
:10097000808388E48093B80084E08093BC0008956D
:1009800084EA8093BC000895ECEBF0E080818469F8
:1009900080838091BC0084FDFCCF08950F931F934A
:1009A000CF93DF93182F062FEA010E94C004809195
:1009B000BC008823E4F78091B900887F883021F05B
:1009C0000E94C40481E062C0812F880F8093BB0025
:1009D00084E88093BC008091BC008823E4F7809178
:1009E000B900887F883121F00E94C40481E04EC0A4
:1009F0000093BB0084E88093BC008091BC008823F6
:100A0000E4F78091B900887F883221F00E94C40405
:100A100081E03CC00E94C0048091BC008823E4F7C0
:100A20008091B900887F803121F00E94C40481E068
:100A30002DC0812F90E0880F991F81608093BB00AB
:100A400084E88093BC008091BC008823E4F7809107
:100A5000B900887F803421F00E94C40481E016C070
:100A600084E88093BC008091BC008823E4F78091E7
:100A7000B900887F883521F00E94C40481E006C057
:100A80008091BB0088830E94C40480E0DF91CF91F5
:100A90001F910F9108950F931F93CF93DF93182FFA
:100AA000092F9F938F9386E091E09F938F931F92DE
:100AB0001F921F921F920E94DD0A01960E94BC099C
:100AC000EC018DB79EB708960FB6F8949EBF0FBE87
:100AD0008DBF209799F00F931F9386E091E09F932D
:100AE0008F93DF93CF930E940D0B0F900F900F9079
:100AF0000F900F900F908C2F9D2F02C080E090E000
:100B0000DF91CF911F910F910895F8940E94B10445
:100B100085E18F930F2EF4E18F2EF02D0F2EF1E152
:100B2000AF2EF02D6894CC24C4F80F2EF9E0EF2EF0
:100B3000F02D08E027E046E06FE08EE00E943603EB
:100B400061E081E00E949A048BE091E00E9403043E
:100B500087E191E00E94030461E082E00E949A0430
:100B60008DE191E00E94030487E191E00E9403047B
:100B700078948FE39CE90197F1F700C000000F9093
:100B800046E551E061EA82E40E94CE0461E081E042
:100B90000E949A0489E291E00E94030484E391E0B8
:100BA0000E9403046EE081E00E949A048091560145
:100BB00090E00E944B050E94030446E551E061EA83
:100BC00086E30E94CE046091560170E080E090E0E0
:100BD0000E943E0720E030E040EA50E40E94CA074D
:100BE00020E030E04FE753E40E9494066093480110
:100BF0007093490180934A0190934B0161E082E038
:100C00000E949A048BE391E00E94030484E391E044
:100C10000E9403046CE082E00E949A046091480103
:100C20007091490180914A0190914B0142E00E94EC
:100C3000100486E491E00E9403049FEF29E688E116
:100C4000915020408040E1F700C0000099CF5058FB
:100C5000BB27AA270E943F060C9490070E94820798
:100C600038F00E94890720F039F49F3F19F426F4E8
:100C70000C947F070EF4E095E7FB0C947907E92FBD
:100C80000E94A10758F3BA176207730784079507F4
:100C900020F079F4A6F50C94C3070EF4E0950B2E22
:100CA000BA2FA02D0B01B90190010C01CA01A001BE
:100CB0001124FF27591B99F0593F50F4503E68F119
:100CC0001A16F040A22F232F342F4427585FF3CF5A
:100CD000469537952795A795F0405395C9F77EF42B
:100CE0001F16BA0B620B730B840BBAF09150A1F074
:100CF000FF0FBB1F661F771F881FC2F70EC0BA0FFA
:100D0000621F731F841F48F4879577956795B79581
:100D1000F7959E3F08F0B0CF9395880F08F099277C
:100D2000EE0F9795879508950E94A8060C9490075A
:100D30000E94890758F00E94820740F029F45F3F23
:100D400029F00C94790751110C94C4070C947F0777
:100D50000E94A10768F39923B1F3552391F3951BE2
:100D6000550BBB27AA2762177307840738F09F5FCC
:100D70005F4F220F331F441FAA1FA9F335D00E2E39
:100D80003AF0E0E832D091505040E695001CCAF7A6
:100D90002BD0FE2F29D0660F771F881FBB1F261769
:100DA00037074807AB07B0E809F0BB0B802DBF0140
:100DB000FF2793585F4F3AF09E3F510578F00C940F
:100DC00079070C94C4075F3FE4F3983ED4F386950B
:100DD00077956795B795F7959F5FC9F7880F911D30
:100DE0009695879597F90895E1E0660F771F881F1C
:100DF000BB1F621773078407BA0720F0621B730BCF
:100E0000840BBA0BEE1F88F7E09508950E940D073A
:100E10006894B1110C94C40708950E94A90788F042
:100E20009F5798F0B92F9927B751B0F0E1F0660FAE
:100E3000771F881F991F1AF0BA95C9F714C0B130EF
:100E400091F00E94C307B1E008950C94C307672F87
:100E5000782F8827B85F39F0B93FCCF3869577951E
:100E60006795B395D9F73EF4909580957095619507
:100E70007F4F8F4F9F4F0895E89409C097FB3EF432
:100E800090958095709561957F4F8F4F9F4F9923D7
:100E9000A9F0F92F96E9BB279395F6958795779555
:100EA0006795B795F111F8CFFAF4BB0F11F460FF15
:100EB0001BC06F5F7F4F8F4F9F4F16C0882311F06D
:100EC00096E911C0772321F09EE8872F762F05C081
:100ED000662371F096E8862F70E060E02AF09A951C
:100EE000660F771F881FDAF7880F9695879597F911
:100EF000089597F99F6780E870E060E008959FEF9C
:100F000080EC089500240A941616170618060906A0
:100F1000089500240A94121613061406050608956F
:100F2000092E0394000C11F4882352F0BB0F40F4F7
:100F3000BF2B11F460FF04C06F5F7F4F8F4F9F4F37
:100F4000089557FD9058440F551F59F05F3F71F0B9
:100F50004795880F97FB991F61F09F3F79F0879520
:100F60000895121613061406551FF2CF4695F1DFA9
:100F700008C0161617061806991FF1CF8695710539
:100F8000610508940895E894BB2766277727CB016D
:100F900097F908950E94DD070C9490070E9482073C
:100FA00038F00E94890720F0952311F00C947907FE
:100FB0000C947F0711240C94C4070E94A10770F3BE
:100FC000959FC1F3950F50E0551F629FF001729FEE
:100FD000BB27F00DB11D639FAA27F00DB11DAA1FFD
:100FE000649F6627B00DA11D661F829F2227B00D4A
:100FF000A11D621F739FB00DA11D621F839FA00DD5
:10100000611D221F749F3327A00D611D231F849F24
:10101000600D211D822F762F6A2F11249F5750407B
:101020009AF0F1F088234AF0EE0FFF1FBB1F661FF6
:10103000771F881F91505040A9F79E3F510580F0BF
:101040000C9479070C94C4075F3FE4F3983ED4F303
:10105000869577956795B795F795E7959F5FC1F763
:10106000FE2B880F911D9695879597F90895FA01A3
:10107000EE0FFF1F309621053105A1F161157105B5
:1010800061F48038BFE39B0749F16894903881058B
:1010900061F08038BFEF9B0741F099234AF5FF3F8D
:1010A000E1053105210519F1E8940894E795D90186
:1010B000AA2329F4AB2FBE2FF85FD0F310C0FF5F37
:1010C00070F4A695E0F7F73950F019F0FF3A38F4CC
:1010D0009F779F930DD00F9007FC9058089546F08E
:1010E0000C947F0760E070E080E89FE308954FE78D
:1010F0009F775F934F933F932F930E9432092F91D5
:101100003F914F915F910E94CA070C948F0829F478
:1011100016F00C9479070C94C3070C947F070E9477
:10112000A907A8F39638A0F707F80F92E8942BE3E5
:101130003AEA48EB5FE70E94E0070F920F920F92A6
:101140004DB75EB70F920E947A09E4EBF0E00E947F
:10115000C1084F915F91EF91FF91E595EE1FFF1F41
:1011600049F0FE57E0684427EE0F441FFA95E1F777
:101170004195550B0E94F4080F9007FE0C94E80867
:101180000895DF93CF931F930F93FF92EF92DF9217
:101190007B018C01689406C0DA2EEF010E94DD0706
:1011A000FE01E894A5912591359145915591A6F3BD
:1011B000EF010E943F06FE019701A801DA9469F74A
:1011C000DF90EF90FF900F911F91CF91DF910895E5
:1011D0009B01AC0160E070E080E89FE30C94940612
:1011E0000C9479070C94AE090E94A907D8F39923AF
:1011F000C9F3940F511DA3F39150504094F059F04E
:10120000882332F0660F771F881F91505040C1F736
:101210009E3F51052CF7880F911D9695879597F95C
:1012200008955F3FACF0983E9CF0BB27869577957C
:101230006795B79508F4B1609395C1F7BB0F58F760
:1012400011F460FFE8CF6F5F7F4F8F4F9F4FE3CF69
:101250000C94C40716F00C94AE090C947F076894A4
:101260000C9479070E94A907A8F39923C1F3AEF360
:10127000DF93CF931F930F93FF92C92FDD2788230E
:101280002AF02197660F771F881FDAF720E030E0F9
:1012900040E85FEB9FE3883920F0803E38F02196EC
:1012A0008F770E942806ECEDF0E004C00E9428062B
:1012B000E9E0F1E00E94C1088B01BE01EC01FB2EC8
:1012C0006F5771097595771F880B990B0E943E0720
:1012D00028E132E741E35FE30E94DD07AF2D98018B
:1012E000AE01FF900F911F91CF91DF910E943F06B9
:1012F0000C949007FA01DC01AA0FBB1F9B01AC0103
:10130000BF5728F4222733274427507820C0B751ED
:1013100090F4AB2F0024469537952795011CA39593
:10132000D2F3002071F0220F331F441FB395DAF37C
:101330000ED00C94270661307105A0E88A07B946E3
:1013400030F49B01AC016627772788279078309688
:1013500021F0208331834283538308959F3F31F0EE
:10136000915020F4879577956795B795880F911DD3
:101370009695879597F908950F931F93CF93DF93D1
:101380008230910510F482E090E0E0915901F091F3
:101390005A0120E030E0A0E0B0E0309719F1408140
:1013A00051810281138148175907C8F084179507A6
:1013B00069F4109731F012960C93129713961C93C0
:1013C00027C00093590110935A0122C021153105FD
:1013D00019F04217530718F49A01BD01EF01DF011C
:1013E000F801DBCF21153105F9F0281B390B24302A
:1013F000310580F48A819B816115710521F0FB0123
:101400009383828304C090935A0180935901FE0113
:10141000329644C0FE01E20FF31F81939193225054
:101420003109398328833AC02091570130915801FE
:10143000232B41F420910201309103013093580194
:1014400020935701209100013091010121153105B0
:1014500041F42DB73EB74091040150910501241B82
:10146000350BE0915701F0915801E217F307A0F412
:101470002E1B3F0B2817390778F0AC014E5F5F4FEA
:101480002417350748F04E0F5F1F509358014093C3
:1014900057018193919302C0E0E0F0E0CF01DF912A
:1014A000CF911F910F910895CF93DF93009709F487
:1014B00081C0FC01329713821282A0915901B09130
:1014C0005A01109781F420813181820F931F20915E
:1014D0005701309158012817390751F5F0935801F9
:1014E000E093570167C0ED0120E030E0CE17DF0741
:1014F00040F44A815B819E0141155105F1F0EA01FA
:10150000F5CFD383C28340815181840F951FC817C3
:10151000D90759F488819981840F951F0296918388
:1015200080838A819B81938382832115310529F4ED
:10153000F0935A01E09359013DC0E901FB83EA832E
:1015400049915991C40FD51FEC17FD0761F48081B3
:101550009181840F951F0296E90199838883828186
:1015600093819B838A83E0E0F0E012968D919C91B9
:101570001397009719F0FD01DC01F7CF8D919C9135
:1015800011979D012E5F3F4F820F931F20915701AE
:10159000309158012817390769F4309729F41092CF
:1015A0005A011092590102C013821282B09358015D
:1015B000A0935701DF91CF910895AEE0B0E0E3EE44
:1015C000FAE00C94CE0D0D891E898F89988D26E046
:1015D0002C831A83098397FF02C080E090E801976B
:1015E0009E838D83AE01455E5F4F698D7A8DCE01FE
:1015F00001960E942F0B4D815E8157FD0AC02F81FD
:101600003885421753070CF49A01F801E20FF31FD3
:1016100010822E96E4E00C94EA0DAEE0B0E0E3E137
:10162000FBE00C94CE0D0D891E8986E08C831A8315
:1016300009838FEF9FE79E838D83AE01475E5F4FE7
:101640006F89788DCE0101960E942F0BEF81F8856E
:10165000E00FF11F10822E96E4E00C94EA0DABE04F
:10166000B0E0E5E3FBE00C94C00D6C017B018A0166
:10167000FC0117821682838181FFCCC1CE010196C5
:101680003C01F6019381F70193FD859193FF8191D0
:101690007F01882309F4BAC1853239F493FD85911D
:1016A00093FF81917F01853229F4B60190E00E9479
:1016B000260DE7CF912C212C312CFFE1F315D8F02A
:1016C0008B3279F038F4803279F08332A1F4232D13
:1016D00020611DC08D3261F0803369F4232D2160BB
:1016E00016C0832D8260382EE32DE4603E2E2AC082
:1016F000F32DF8601DC037FC2DC020ED280F2A30D7
:1017000040F08E32B9F436FC81C1232D2064322E94
:1017100019C036FE06C08AE0989E200D1124922E34
:1017200011C0EAE02E9E200D1124222EF32DF0622E
:101730003F2E08C08C3621F4832D8068382E02C0DD
:10174000883641F4F70193FD859193FF81917F01E4
:101750008111B3CF982F9F7D9554933028F40C5F5F
:101760001F4F9FE399830DC0833631F0833771F0AB
:10177000833509F059C021C0F801808189830E5F4B
:101780001F4F88248394912C530113C02801F2E049
:101790004F0E511CF801A080B18036FE03C0692DA8
:1017A00070E002C06FEF7FEFC5010E941B0D4C017E
:1017B0008201F32DFF773F2E16C0280122E0420E52
:1017C000511CF801A080B18036FE03C0692D70E085
:1017D00002C06FEF7FEFC5010E94100D4C01F32D89
:1017E000F0683F2E820133FC1BC0822D90E08816EA
:1017F0009906B0F4B60180E290E00E94260D2A948A
:10180000F4CFF50137FC859137FE81915F01B60178
:1018100090E00E94260D21102A9421E0821A91085E
:101820008114910471F7E8C0843611F0893641F5CE
:10183000F80137FE07C060817181828193810C5F5E
:101840001F4F08C060817181072E000C880B990B17
:101850000E5F1F4FF32DFF763F2E97FF09C0909527
:101860008095709561957F4F8F4F9F4FF0683F2E09
:101870002AE030E0A3010E94620D882E861845C040
:10188000853731F4232D2F7EB22E2AE030E025C09B
:10189000932D997FB92E8F36C1F018F4883579F0E1
:1018A000B5C0803719F0883721F0B0C0E92FE0616A
:1018B000BE2EB4FE0DC0FB2DF460BF2E09C034FE59
:1018C0000AC0292F2660B22E06C028E030E005C0ED
:1018D00020E130E002C020E132E0F801B7FE07C0AD
:1018E00060817181828193810C5F1F4F06C060818E
:1018F000718180E090E00E5F1F4FA3010E94620D96
:10190000882E8618FB2DFF773F2E36FE0DC0232D27
:101910002E7FA22E891458F434FE0BC032FC09C06D
:10192000832D8E7EA82E05C0B82CA32C03C0B82C06
:1019300001C0B92CA4FE0FC0FE01E80DF11D80818D
:10194000803321F49A2D997EA92E09C0A2FE06C0EB
:10195000B394B39404C08A2D867809F0B394A3FCA1
:1019600011C0A0FE06C0B21488F4280C922C9B185B
:101970000EC0B21460F4B60180E290E00E94260D21
:10198000B394F7CFB21418F42B1802C0982C212C62
:10199000A4FE10C0B60180E390E00E94260DA2FED6
:1019A00017C0A1FC03C088E790E002C088E590E082
:1019B000B6010CC08A2D867859F0A1FE02C08BE2D8
:1019C00001C080E2A7FC8DE2B60190E00E94260DE6
:1019D000891438F4B60180E390E00E94260D9A94B1
:1019E000F7CF8A94F301E80DF11D8081B60190E0F4
:1019F0000E94260D8110F5CF222009F442CEB601B7
:101A000080E290E00E94260D2A94F6CFF6018681AE
:101A1000978102C08FEF9FEF2B96E2E10C94DC0DD3
:101A2000FC010590615070400110D8F780959095A9
:101A30008E0F9F1F0895FC016150704001900110AE
:101A4000D8F7809590958E0F9F1F08950F931F9341
:101A5000CF93DF93FB01238121FD03C08FEF9FEF25
:101A60002CC022FF16C04681578124813581421740
:101A7000530744F4A081B1819D012F5F3F4F318313
:101A800020838C93268137812F5F3F4F37832683B6
:101A900014C08B01EC01FB010084F185E02D099558
:101AA000892BE1F6D80116968D919C911797019696
:101AB00017969C938E931697CE01DF91CF911F912D
:101AC0000F910895FA01AA27283051F1203181F1B0
:101AD000E8946F936E7F6E5F7F4F8F4F9F4FAF4F36
:101AE000B1E03ED0B4E03CD0670F781F891F9A1F49
:101AF000A11D680F791F8A1F911DA11D6A0F711DFD
:101B0000811D911DA11D20D009F468943F912AE008
:101B1000269F11243019305D3193DEF6CF010895F0
:101B2000462F4770405D4193B3E00FD0C9F7F6CF21
:101B3000462F4F70405D4A3318F0495D31FD4052E9
:101B4000419302D0A9F7EACFB4E0A695979587957F
:101B500077956795BA95C9F700976105710508955E
:101B60009B01AC010A2E069457954795379527950A
:101B7000BA95C9F7620F731F841F951FA01D0895A2
:101B80002F923F924F925F926F927F928F929F928D
:101B9000AF92BF92CF92DF92EF92FF920F931F937B
:101BA000CF93DF93CDB7DEB7CA1BDB0B0FB6F8942C
:101BB000DEBF0FBECDBF09942A88398848885F846C
:101BC0006E847D848C849B84AA84B984C884DF80DD
:101BD000EE80FD800C811B81AA81B981CE0FD11DC1
:101BE0000FB6F894DEBF0FBECDBFED010895F89497
:021BF000FFCF25
:101BF20000005B0120002564002E005331202830B4
:101C0200783432293A20002020202030005332201C
:101C12002830783336293A2000533120283078345E
:101C220032293A0020202020202000533220283060
:081C3200783336293A00560010
:00000001FF
