S01200004932435F4D61737465722E7372656389
S11300000C945A000C946C000C946C000C946C00CE
S11300100C946C000C946C000C946C000C946C00AC
S11300200C946C000C946C000C946C000C946C009C
S11300300C946C000C946C000C946C000C946C008C
S11300400C946C000C946C000C946C000C946C007C
S11300500C946C000C946C000C946C000C946C006C
S11300600C946C000C946C000C946C000C946C005C
S11300700C946C000C946C000C946C000C946C004C
S11300800C946C000C946C000C946C000C946C003C
S11300900C946C000C946C000C946C000C946C002C
S11300A00C946C000C946C000C946C000C946C001C
S11300B00C946C0011241FBECFEFD8E0DEBFCDBF7F
S11300C021E0A0E0B1E001C01D92A130B207E1F748
S11300D00E9465030C94DC030C940000863008F045
S11300E045C061111CC094B1482F477021E030E035
S11300F002C0220F331F4A95E2F7292B24B984301A
S113010029F4E9ECF0E090819F7E9083833009F03C
S113011043C1E9ECF0E08081877F808308956130FA
S113012099F444B1877021E030E0B90102C0660F50
S1130130771F8A95E2F7CB01962F9095942394B973
S113014095B1892B85B90895623009F025C144B170
S1130150877021E030E0B90102C0660F771F8A95ED
S1130160E2F7CB018095842384B908959AEF980F20
S1130170963008F052C0611117C047B190E0029662
S113018087709078992324F40197886F9F6F019664
S113019021E030E0B90102C0660F771F8A95E2F7CB
S11301A0CB01842B87B908956130E1F447B190E025
S11301B0029687709078992324F40197886F9F6F33
S11301C0019621E030E0B90102C0660F771F8A95DD
S11301D0E2F7CB01962F9095942397B998B1892B88
S11301E088B90895623009F0D7C047B190E002960B
S11301F087709078992324F40197886F9F6F0196F4
S113020021E030E0B90102C0660F771F8A95E2F75A
S1130210CB018095842387B9089594EF980F983083
S113022008F065C061112AC09AB1282F30E02C5F14
S11302303F4F27703078332334F421503109286F2D
S11302403F6F2F5F3F4F41E050E0BA0102C0660F9D
S1130250771F2A95E2F79B01292B2AB98C3029F4C0
S1130260E1ECF0E090819F7E90838D3009F094C0A2
S1130270E1ECF0E08081877F808308956130E1F4D0
S11302804AB190E0049687709078992324F40197FA
S1130290886F9F6F019621E030E0B90102C0660FBC
S11302A0771F8A95E2F7CB01962F909594239AB9FC
S11302B09BB1892B8BB90895623009F06DC04AB1A6
S11302C090E0049687709078992324F40197886FBE
S11302D09F6F019621E030E0B90102C0660F771FDD
S11302E08A95E2F7CB01809584238AB908959CEE20
S11302F0980F923008F050C0611117C04DB190E0D2
S1130300029787709078992324F40197886F9F6FE0
S1130310019621E030E0B90102C0660F771F8A958B
S1130320E2F7CB01842B8DB908956130E1F44DB12E
S113033090E0029787709078992324F40197886F4E
S11303409F6F019621E030E0B90102C0660F771F6C
S11303508A95E2F7CB01962F909594239DB99EB18F
S1130360892B8EB908956230B9F44DB190E00297AB
S113037087709078992324F40197886F9F6F019672
S113038021E030E0B90102C0660F771F8A95E2F7D9
S1130390CB01809584238DB908958630F8F46623C3
S11303A071F045B1877021E030E0B90102C0660FF9
S11303B0771F8A95E2F7CB01842B85B9089545B15F
S11303C0877021E030E0B90102C0660F771F8A957B
S11303D0E2F7CB018095842385B908959AEF980FAD
S11303E0963088F56623B9F048B190E0029687709C
S11303F09078992324F40197886F9F6F019621E0E8
S113040030E0B90102C0660F771F8A95E2F7CB018D
S1130410842B88B9089548B190E00296877090784B
S1130420992324F40197886F9F6F019621E030E0AF
S1130430B90102C0660F771F8A95E2F7CB01809558
S1130440842388B9089594EF980F983088F566232B
S1130450B9F04BB190E0049687709078992324F416
S11304600197886F9F6F019621E030E0B90102C0C7
S1130470660F771F8A95E2F7CB01842B8BB9089519
S11304804BB190E0049687709078992324F40197F7
S1130490886F9F6F019621E030E0B90102C0660FBA
S11304A0771F8A95E2F7CB01809584238BB9089551
S11304B09CEE980F923080F56623B9F04EB190E02F
S11304C0029787709078992324F40197886F9F6F1F
S11304D0019621E030E0B90102C0660F771F8A95CA
S11304E0E2F7CB01842B8EB908954EB190E00297C8
S11304F087709078992324F40197886F9F6F0196F1
S113050021E030E0B90102C0660F771F8A95E2F757
S1130510CB01809584238EB90895E9EBF0E08081C6
S11305208E7F808380818D7F808388E48093B80070
S113053084E08093BC00089584EA8093BC0008950D
S1130540ECEBF0E08081846980838091BC0084FDC1
S1130550FCCF0895CF93DF93C82FD62F0E949C021F
S11305608091BC008823E4F78091B900887F8830AB
S113057021F00E94A00281E028C0CC0FC093BB00F0
S113058084E88093BC008091BC008823E4F78091C8
S1130590B900887F883121F00E94A00281E015C053
S11305A0D093BB0084E88093BC008091BC00882376
S11305B0E4F78091B900887F883221F00E94A0027C
S11305C081E003C00E94A00280E0DF91CF910895F2
S11305D00F931F93CF93DF93182F062FEA010E94E6
S11305E09C028091BC008823E4F78091B900887F45
S11305F0883021F00E94A00281E062C0812F880F20
S11306008093BB0084E88093BC008091BC00882365
S1130610E4F78091B900887F883121F00E94A0021C
S113062081E04EC00093BB0084E88093BC008091BD
S1130630BC008823E4F78091B900887F883221F0D8
S11306400E94A00281E03CC00E949C028091BC00F8
S11306508823E4F78091B900887F803121F00E94DB
S1130660A00281E02DC0812F90E0880F991F816046
S11306708093BB0084E88093BC008091BC008823F5
S1130680E4F78091B900887F803421F00E94A002B1
S113069081E016C084E88093BC008091BC0088236C
S11306A0E4F78091B900887F883521F00E94A00288
S11306B081E006C08091BB0088830E94A00280E094
S11306C0DF91CF911F910F910895F8940E948D02AC
S11306D0789460E081E00E946E0060E080E00E9417
S11306E06E0060E083E10E946E0060E082E10E949F
S11306F06E0060E081E10E946E0060E080E10E9493
S11307006E0060E08FE00E946E0060E08EE00E9468
S11307106E008FE39CE90197F1F700C000006AEADC
S113072086E30E94AA028FE39CE90197F1F700C0D7
S1130730000040E051E061EA86E30E94E802609133
S11307400001661F6627661F81E00E94CD0160914B
S1130750000166FB662760F980E00E94CD0160918C
S1130760000165FB662760F983E10E94CD01609179
S113077000016295617082E10E94CD0160910001E7
S113078063FB662760F981E10E94CD01609100015D
S113079062FB662760F980E10E94CD01609100014F
S11307A0669561708FE00E94CD01609100016170D7
S10F07B08EE00E94CD01FFCFF894FFCF33
S9030000FC
